{
  "_format": "hh-sol-artifact-1",
  "contractName": "BuyMeAKatsu",
  "sourceName": "contracts/BuyMeAKatsu.sol",
  "abi": [
    {
      "inputs": [
        {
          "internalType": "address",
          "name": "_jpycAddress",
          "type": "address"
        }
      ],
      "stateMutability": "nonpayable",
      "type": "constructor"
    },
    {
      "anonymous": false,
      "inputs": [
        {
          "indexed": true,
          "internalType": "address",
          "name": "from",
          "type": "address"
        },
        {
          "indexed": false,
          "internalType": "uint256",
          "name": "timestamp",
          "type": "uint256"
        },
        {
          "indexed": false,
          "internalType": "string",
          "name": "name",
          "type": "string"
        },
        {
          "indexed": false,
          "internalType": "string",
          "name": "message",
          "type": "string"
        }
      ],
      "name": "NewMemo",
      "type": "event"
    },
    {
      "inputs": [
        {
          "internalType": "string",
          "name": "_name",
          "type": "string"
        },
        {
          "internalType": "string",
          "name": "_message",
          "type": "string"
        },
        {
          "internalType": "uint256",
          "name": "_value",
          "type": "uint256"
        }
      ],
      "name": "buyKatsu",
      "outputs": [],
      "stateMutability": "payable",
      "type": "function"
    },
    {
      "inputs": [],
      "name": "getMemos",
      "outputs": [
        {
          "components": [
            {
              "internalType": "address",
              "name": "from",
              "type": "address"
            },
            {
              "internalType": "uint256",
              "name": "timestamp",
              "type": "uint256"
            },
            {
              "internalType": "string",
              "name": "name",
              "type": "string"
            },
            {
              "internalType": "string",
              "name": "message",
              "type": "string"
            }
          ],
          "internalType": "struct BuyMeAKatsu.Memo[]",
          "name": "",
          "type": "tuple[]"
        }
      ],
      "stateMutability": "view",
      "type": "function"
    },
    {
      "inputs": [],
      "name": "withdrawTips",
      "outputs": [],
      "stateMutability": "nonpayable",
      "type": "function"
    }
  ],
  "bytecode": "0x60806040523480156200001157600080fd5b506040516200149e3803806200149e8339818101604052810190620000379190620002ca565b33600160006101000a81548173ffffffffffffffffffffffffffffffffffffffff021916908373ffffffffffffffffffffffffffffffffffffffff16021790555080600260006101000a81548173ffffffffffffffffffffffffffffffffffffffff021916908373ffffffffffffffffffffffffffffffffffffffff160217905550600260009054906101000a900473ffffffffffffffffffffffffffffffffffffffff16600360006101000a81548173ffffffffffffffffffffffffffffffffffffffff021916908373ffffffffffffffffffffffffffffffffffffffff1602179055506200018a6040518060400160405280601981526020017f6a707963416464726573732066726f6d20636f6e747261637400000000000000815250600260009054906101000a900473ffffffffffffffffffffffffffffffffffffffff166200019160201b620006211760201c565b50620003db565b620002338282604051602401620001aa929190620003a7565b6040516020818303038152906040527f319af333000000000000000000000000000000000000000000000000000000007bffffffffffffffffffffffffffffffffffffffffffffffffffffffff19166020820180517bffffffffffffffffffffffffffffffffffffffffffffffffffffffff83818316178352505050506200023760201b60201c565b5050565b60008151905060006a636f6e736f6c652e6c6f679050602083016000808483855afa5050505050565b600080fd5b600073ffffffffffffffffffffffffffffffffffffffff82169050919050565b6000620002928262000265565b9050919050565b620002a48162000285565b8114620002b057600080fd5b50565b600081519050620002c48162000299565b92915050565b600060208284031215620002e357620002e262000260565b5b6000620002f384828501620002b3565b91505092915050565b600081519050919050565b600082825260208201905092915050565b60005b83811015620003385780820151818401526020810190506200031b565b60008484015250505050565b6000601f19601f8301169050919050565b60006200036282620002fc565b6200036e818562000307565b93506200038081856020860162000318565b6200038b8162000344565b840191505092915050565b620003a18162000285565b82525050565b60006040820190508181036000830152620003c3818562000355565b9050620003d4602083018462000396565b9392505050565b6110b380620003eb6000396000f3fe6080604052600436106100345760003560e01c8063104ab3fe146100395780633aaa74b214610055578063865c51721461006c575b600080fd5b610053600480360381019061004e9190610876565b610097565b005b34801561006157600080fd5b5061006a610260565b005b34801561007857600080fd5b5061008161043e565b60405161008e9190610afc565b60405180910390f35b600360009054906101000a900473ffffffffffffffffffffffffffffffffffffffff1673ffffffffffffffffffffffffffffffffffffffff166323b872dd3330846040518463ffffffff1660e01b81526004016100f693929190610b3c565b600060405180830381600087803b15801561011057600080fd5b505af1158015610124573d6000803e3d6000fd5b50505050600060405180608001604052803373ffffffffffffffffffffffffffffffffffffffff16815260200142815260200185815260200184815250908060018154018082558091505060019003906000526020600020906004020160009091909190915060008201518160000160006101000a81548173ffffffffffffffffffffffffffffffffffffffff021916908373ffffffffffffffffffffffffffffffffffffffff1602179055506020820151816001015560408201518160020190816101f09190610d7f565b5060608201518160030190816102069190610d7f565b5050503373ffffffffffffffffffffffffffffffffffffffff167fc56140e05f516509ae28110e0f72e17558a7561630dad2647c3ae87d986e365c42858560405161025393929190610e9b565b60405180910390a2505050565b3373ffffffffffffffffffffffffffffffffffffffff16600160009054906101000a900473ffffffffffffffffffffffffffffffffffffffff1673ffffffffffffffffffffffffffffffffffffffff16146102f0576040517f08c379a00000000000000000000000000000000000000000000000000000000081526004016102e790610f52565b60405180910390fd5b600360009054906101000a900473ffffffffffffffffffffffffffffffffffffffff1673ffffffffffffffffffffffffffffffffffffffff1663a9059cbb600160009054906101000a900473ffffffffffffffffffffffffffffffffffffffff16600360009054906101000a900473ffffffffffffffffffffffffffffffffffffffff1673ffffffffffffffffffffffffffffffffffffffff166370a08231306040518263ffffffff1660e01b81526004016103ac9190610f72565b602060405180830381865afa1580156103c9573d6000803e3d6000fd5b505050506040513d601f19601f820116820180604052508101906103ed9190610fa2565b6040518363ffffffff1660e01b815260040161040a929190611024565b600060405180830381600087803b15801561042457600080fd5b505af1158015610438573d6000803e3d6000fd5b50505050565b60606000805480602002602001604051908101604052809291908181526020016000905b8282101561061857838290600052602060002090600402016040518060800160405290816000820160009054906101000a900473ffffffffffffffffffffffffffffffffffffffff1673ffffffffffffffffffffffffffffffffffffffff1673ffffffffffffffffffffffffffffffffffffffff168152602001600182015481526020016002820180546104f590610ba2565b80601f016020809104026020016040519081016040528092919081815260200182805461052190610ba2565b801561056e5780601f106105435761010080835404028352916020019161056e565b820191906000526020600020905b81548152906001019060200180831161055157829003601f168201915b5050505050815260200160038201805461058790610ba2565b80601f01602080910402602001604051908101604052809291908181526020018280546105b390610ba2565b80156106005780601f106105d557610100808354040283529160200191610600565b820191906000526020600020905b8154815290600101906020018083116105e357829003601f168201915b50505050508152505081526020019060010190610462565b50505050905090565b6106b9828260405160240161063792919061104d565b6040516020818303038152906040527f319af333000000000000000000000000000000000000000000000000000000007bffffffffffffffffffffffffffffffffffffffffffffffffffffffff19166020820180517bffffffffffffffffffffffffffffffffffffffffffffffffffffffff83818316178352505050506106bd565b5050565b60008151905060006a636f6e736f6c652e6c6f679050602083016000808483855afa5050505050565b6000604051905090565b600080fd5b600080fd5b600080fd5b600080fd5b6000601f19601f8301169050919050565b7f4e487b7100000000000000000000000000000000000000000000000000000000600052604160045260246000fd5b61074d82610704565b810181811067ffffffffffffffff8211171561076c5761076b610715565b5b80604052505050565b600061077f6106e6565b905061078b8282610744565b919050565b600067ffffffffffffffff8211156107ab576107aa610715565b5b6107b482610704565b9050602081019050919050565b82818337600083830152505050565b60006107e36107de84610790565b610775565b9050828152602081018484840111156107ff576107fe6106ff565b5b61080a8482856107c1565b509392505050565b600082601f830112610827576108266106fa565b5b81356108378482602086016107d0565b91505092915050565b6000819050919050565b61085381610840565b811461085e57600080fd5b50565b6000813590506108708161084a565b92915050565b60008060006060848603121561088f5761088e6106f0565b5b600084013567ffffffffffffffff8111156108ad576108ac6106f5565b5b6108b986828701610812565b935050602084013567ffffffffffffffff8111156108da576108d96106f5565b5b6108e686828701610812565b92505060406108f786828701610861565b9150509250925092565b600081519050919050565b600082825260208201905092915050565b6000819050602082019050919050565b600073ffffffffffffffffffffffffffffffffffffffff82169050919050565b60006109588261092d565b9050919050565b6109688161094d565b82525050565b61097781610840565b82525050565b600081519050919050565b600082825260208201905092915050565b60005b838110156109b757808201518184015260208101905061099c565b60008484015250505050565b60006109ce8261097d565b6109d88185610988565b93506109e8818560208601610999565b6109f181610704565b840191505092915050565b6000608083016000830151610a14600086018261095f565b506020830151610a27602086018261096e565b5060408301518482036040860152610a3f82826109c3565b91505060608301518482036060860152610a5982826109c3565b9150508091505092915050565b6000610a7283836109fc565b905092915050565b6000602082019050919050565b6000610a9282610901565b610a9c818561090c565b935083602082028501610aae8561091d565b8060005b85811015610aea5784840389528151610acb8582610a66565b9450610ad683610a7a565b925060208a01995050600181019050610ab2565b50829750879550505050505092915050565b60006020820190508181036000830152610b168184610a87565b905092915050565b610b278161094d565b82525050565b610b3681610840565b82525050565b6000606082019050610b516000830186610b1e565b610b5e6020830185610b1e565b610b6b6040830184610b2d565b949350505050565b7f4e487b7100000000000000000000000000000000000000000000000000000000600052602260045260246000fd5b60006002820490506001821680610bba57607f821691505b602082108103610bcd57610bcc610b73565b5b50919050565b60008190508160005260206000209050919050565b60006020601f8301049050919050565b600082821b905092915050565b600060088302610c357fffffffffffffffffffffffffffffffffffffffffffffffffffffffffffffffff82610bf8565b610c3f8683610bf8565b95508019841693508086168417925050509392505050565b6000819050919050565b6000610c7c610c77610c7284610840565b610c57565b610840565b9050919050565b6000819050919050565b610c9683610c61565b610caa610ca282610c83565b848454610c05565b825550505050565b600090565b610cbf610cb2565b610cca818484610c8d565b505050565b5b81811015610cee57610ce3600082610cb7565b600181019050610cd0565b5050565b601f821115610d3357610d0481610bd3565b610d0d84610be8565b81016020851015610d1c578190505b610d30610d2885610be8565b830182610ccf565b50505b505050565b600082821c905092915050565b6000610d5660001984600802610d38565b1980831691505092915050565b6000610d6f8383610d45565b9150826002028217905092915050565b610d888261097d565b67ffffffffffffffff811115610da157610da0610715565b5b610dab8254610ba2565b610db6828285610cf2565b600060209050601f831160018114610de95760008415610dd7578287015190505b610de18582610d63565b865550610e49565b601f198416610df786610bd3565b60005b82811015610e1f57848901518255600182019150602085019450602081019050610dfa565b86831015610e3c5784890151610e38601f891682610d45565b8355505b6001600288020188555050505b505050505050565b600082825260208201905092915050565b6000610e6d8261097d565b610e778185610e51565b9350610e87818560208601610999565b610e9081610704565b840191505092915050565b6000606082019050610eb06000830186610b2d565b8181036020830152610ec28185610e62565b90508181036040830152610ed68184610e62565b9050949350505050565b7f596f7520646f6e27742068617665206120726967687420746f2077697468647260008201527f6177210000000000000000000000000000000000000000000000000000000000602082015250565b6000610f3c602383610e51565b9150610f4782610ee0565b604082019050919050565b60006020820190508181036000830152610f6b81610f2f565b9050919050565b6000602082019050610f876000830184610b1e565b92915050565b600081519050610f9c8161084a565b92915050565b600060208284031215610fb857610fb76106f0565b5b6000610fc684828501610f8d565b91505092915050565b6000610fea610fe5610fe08461092d565b610c57565b61092d565b9050919050565b6000610ffc82610fcf565b9050919050565b600061100e82610ff1565b9050919050565b61101e81611003565b82525050565b60006040820190506110396000830185611015565b6110466020830184610b2d565b9392505050565b600060408201905081810360008301526110678185610e62565b90506110766020830184610b1e565b939250505056fea26469706673582212204ef87ac5c68852854e6ba6d9dd7bec4511004ebf3181b0ea2d6425027f6c57a764736f6c63430008110033",
  "linkReferences": {},
  "deployedLinkReferences": {}
}